:020000040000FA
:1000000061EF00F0FFFFFFFF0182D9CF02F0DACFEE
:1000100003F0F2A40EEF00F010EF00F030EF00F06C
:100020000001CF4BD02B4B0ECF5D4C0ED059D8A03A
:100030001CEF00F01EEF00F02FEF00F0D06B000E71
:10004000CF6F010EDF6F58505910D8B42AEF00F06F
:100050002CEF00F02FEF00F05806D8A05906F294CC
:100060009EAA35EF00F037EF00F05BEF00F0AECF67
:1000700004F03F0E0101FF6140EF00F042EF00F09D
:1000800052EF00F0000EFF25D96EDA6A020EDA2276
:1000900004C0DFFFFF2B000EFF25D96EDA6A020EC7
:1000A000DA22DF6AABA257EF00F059EF00F05BEF06
:1000B00000F0AB98AB8803C0DAFF02C0D9FF019211
:1000C0001100D6EF0DF00001DB05D8A46AEF00F0B7
:1000D0006CEF00F0E0EF02F0D96B0DEF03F0AB989E
:1000E000AB880101FF6B0201006BA80E056E7F0E4D
:1000F000066EA1EC0DF0596A030E586E020E000157
:10010000D96FEC0E056ED20E066E7F0E076E2AECCE
:100110000FF00DEF03F0000E0C6E020E0D6E960E3A
:100120000E6E7F0E0F6EF3EC09F00C500D10D8B46C
:100130009CEF00F09EEF00F0CAEF00F00101FF6BB2
:100140000201006BA00E396E010E3A6EAF0E3B6ECF
:100150007E0E3C6E760E3D6E7F0E3E6EC40E3F6E82
:100160007F0E406EF2EC0EF0A00E056E010E066ED4
:10017000A1EC0DF0596A0A0E586E030E0001D96FFA
:10018000EC0E056ED60E066E7F0E076E2AEC0FF093
:100190000DEF03F058505910D8A4D1EF00F0D3EF71
:1001A00000F00DEF03F00101FF51D8A4DAEF00F0E9
:1001B000DCEF00F0E2EF00F0FA0EF76F7F0EF86F61
:1001C000E6EF00F0000EF76F020EF86FE00E396EEA
:1001D000010E3A6E3C6A140E3B6E990E3D6E7F0E18
:1001E0003E6EF7C13FF0F8C140F0A5EC08F0010EFB
:1001F0000E6EE00E0F6E010E106E040EECEC0CF0A5
:100200000001D96BEC0E056EDA0E066E7F0E076EDE
:100210002AEC0FF00001CB4BCC2B0DEF03F0000EBE
:100220000C6E020E0D6E960E0E6E7F0E0F6EF3ECC0
:1002300009F00C500D10D8A420EF01F022EF01F0CE
:1002400035EF01F0000E0C6E020E0D6E330E0E6EC9
:100250007F0E0F6EF3EC09F00C500D10D8B433EF95
:1002600001F035EF01F046EF01F00101FF6B0201F3
:10027000006B040E0001D96FEC0E056EDE0E066EEB
:100280007F0E076E2AEC0FF00DEF03F05850591057
:10029000D8A44DEF01F04FEF01F00DEF03F0010195
:1002A000FF51D8A456EF01F058EF01F05EEF01F0D6
:1002B000FA0EF96F7F0EFA6F62EF01F0000EF96F20
:1002C000020EFA6FE00E396E010E3A6E3C6A140EA1
:1002D0003B6EAF0E3D6E7F0E3E6EF9C13FF0FAC130
:1002E00040F0A5EC08F0010E0E6EE00E0F6E010E50
:1002F000106E040EECEC0CF00001D96BEC0E056EE8
:10030000E20E066E7F0E076E2AEC0FF00AEF01F088
:10031000000E396E010E3A6E710E3B6E7E0E3C6E13
:10032000C1C03DF0C2C03EF0C3C03FF0C4C040F009
:10033000D5C041F0D6C042F0E4C043F0E5C044F07F
:10034000CDC045F0CEC046F0F2EC0EF0000E056ECA
:10035000010E066E67EC0EF005C0F5F106C0F6F171
:10036000A00E396E010E3A6E570E3B6E7F0E3C6E3C
:10037000F5C13DF0F6C13EF0F2EC0EF00101FF6B6D
:100380000201006BA00E056E010E066EA1EC0DF0D1
:10039000596A020E586E050E0001D96FEC0E056EFB
:1003A000E60E066E7F0E076E2AEC0FF00DEF03F0DF
:1003B000000E0C6E020E0D6EFD0E0E6E7F0E0F6E99
:1003C000F3EC09F00C500D10D8B4E9EF01F0EBEFAD
:1003D00001F0FCEF01F00101FF6B0201006B060E62
:1003E0000001D96FEC0E056EEA0E066E7F0E076EE9
:1003F0002AEC0FF00DEF03F058505910D8A403EF7A
:1004000002F005EF02F00DEF03F00101FF51D8A457
:100410000CEF02F00EEF02F014EF02F0FA0EFB6F99
:100420007F0EFC6F18EF02F0000EFB6F020EFC6FE8
:10043000E00E396E010E3A6E3C6A140E3B6EB60E3B
:100440003D6E7F0E3E6EFBC13FF0FCC140F0A5EC5F
:1004500008F0010E0E6EE00E0F6E010E106E040E0F
:10046000ECEC0CF00001D96BEC0E056EEE0E066E96
:100470007F0E076E2AEC0FF00AEF01F0000E396EC6
:10048000010E3A6E710E3B6E7E0E3C6EC1C03DF0A9
:10049000C2C03EF0C3C03FF0C4C040F0D5C041F080
:1004A000D6C042F0E4C043F0E5C044F0CDC045F012
:1004B000CEC046F0F2EC0EF00101FF6B0201006BC2
:1004C000000E056E010E066EA1EC0DF0596A030ECA
:1004D000586E070E0001D96FEC0E056EF20E066E17
:1004E0007F0E076E2AEC0FF00DEF03F0000E0C6E7E
:1004F000020E0D6E910E0E6E7F0E0F6EF3EC09F074
:100500000C500D10D8B487EF02F089EF02F09EEF87
:1005100002F0010E0E6EF60E0F6E7E0E106E040EC1
:10052000ECEC0CF00001D96BEC0E056E950E066E2E
:100530007F0E076E2AEC0FF00DEF03F058505910A4
:10054000D8A4A5EF02F0A7EF02F00DEF03F0010130
:10055000FF51D8A4AEEF02F0B0EF02F0B6EF02F018
:10056000FA0EFD6F7F0EFE6FBAEF02F0000EFD6F08
:10057000020EFE6FE00E396E010E3A6E3C6A140EEA
:100580003B6EBD0E3D6E7F0E3E6EFDC13FF0FEC167
:1005900040F0A5EC08F0010E0E6EE00E0F6E010E9D
:1005A000106E040EECEC0CF00001D96BEC0E056E35
:1005B000C90E066E7F0E076E2AEC0FF00AEF01F0EF
:1005C000D951546E556A5550000AD8B4EAEF02F07A
:1005D0000DEF03F05450000AD8B40DEF03F0010AF8
:1005E000D8B46FEF00F0030AD8B48BEF00F0010A23
:1005F000D8B40FEF01F0070AD8B488EF01F0010A70
:10060000D8B4D8EF01F0030AD8B43EEF02F0010AE3
:10061000D8B476EF02F00DEF03F01200F26A9D6A93
:10062000AB6A0D0EC16E920EC06E070E926E929660
:1006300094908A989398B56A070EB46E949C948EA1
:10064000C00ED56E030E0001616F8A0E606F550EED
:10065000E82EFED7602FFCD7612FFAD700D00C0E02
:100660002DEC0DF0030E0001616F8A0E606F550EC8
:10067000E82EFED7602FFCD7612FFAD700D00E0EE0
:100680002DEC0DF0010E0E6E450E0F6E7F0E106EEE
:10069000010EECEC0CF0020E0E6E670E0F6E7F0E6C
:1006A000106E020EECEC0CF0030E0E6E840E0F6E4C
:1006B0007F0E106E030EECEC0CF061EF03F05CECBF
:1006C0000CF00001E251E319D8A469EF03F06BEFDD
:1006D00003F05FEF03F00A0EAF6E240EAC6E900EC7
:1006E000AB6EAECFABF0AECFABF0AB98AB889D8A24
:1006F000F28AF28CF28E89865CEC0CF0000EB4EC7F
:100700000EF005C0C9F006C0CAF0010EB4EC0EF040
:1007100005C0C7F006C0C8F0E8C060F0E9C061F0ED
:100720000001D89061336033D89061336033D89042
:1007300061336033C9C062F0CAC063F0D8906333DC
:100740006233D89063336233D8906333623360513D
:10075000625D646F61516359656FE8516425E86FAC
:10076000E9516521E96FE6C060F0E7C061F0D8901B
:1007700061336033D89061336033D8906133603334
:10078000C7C062F0C8C063F0D89063336233D890BA
:1007900063336233D890633362336051625D646F58
:1007A00061516359656FE6516425E66FE751652134
:1007B000E76F840EE85D030EE959D8A0E2EF03F07D
:1007C000E5EF03F0010EE6EF03F0000EDD6F840E9F
:1007D000E65D030EE759D8A0F0EF03F0F3EF03F066
:1007E000010EF4EF03F0000EDE6FDE51D8B4FBEF24
:1007F00003F0FDEF03F025EF04F08B80DB51D8A46C
:1008000004EF04F006EF04F021EF04F0E8C0C3F0B9
:10081000E9C0C4F0E6C0C1F0E7C0C2F0000EB06F9E
:10082000000EB16F000EB26F000EB36F000EAC6F12
:10083000000EAD6F000EAE6F000EAF6FC66B000EF8
:10084000C56F010EDB6F61EF04F0DD51D8A42BEF13
:1008500004F02DEF04F061EF04F0DE51D8A433EF83
:1008600004F035EF04F061EF04F08B90DB05D8A4C1
:100870003CEF04F03EEF04F05FEF04F0D951D8A450
:1008800044EF04F046EF04F048EF04F0010ED96F96
:10089000640EE403F3CF60F0F4CF61F0E503F350AE
:1008A000612760C005F061C006F0CDC007F0CEC082
:1008B00008F068EC0DF005C0EAF006C0EBF00001AE
:1008C000DB6BDF51D8B467EF04F069EF04F0F9EFA8
:1008D00004F0DF6B010EDC6F010EB427000EB523B0
:1008E000B623B7230A0EB419B511B611B711D8A49F
:1008F0007CEF04F07EEF04F095EF04F0DA51D8A419
:1009000084EF04F086EF04F095EF04F0D951D8A4F9
:100910008CEF04F08EEF04F090EF04F0010ED96F2D
:10092000010EDA6FCC6B000ECB6FDB05D8A49BEF0A
:1009300004F09DEF04F0C5EF04F0C951B027CA518F
:10094000B123000EB223000EB323C751AC27C85108
:10095000AD23000EAE23000EAF23C54BC62BD34BE9
:10096000D42B010EE16FE051D8B4B9EF04F0BBEF26
:1009700004F0D9EF04F0D1C0CDF0D2C0CEF0D26BEC
:10098000000ED16FE06BD9EF04F0D14BD22B010EEA
:10099000E06FE151D8B4CFEF04F0D1EF04F0D9EF1C
:1009A00004F0D3C0E4F0D4C0E5F0D46B000ED36FF4
:1009B000E16BB4C005F0B5C006F0B6C007F0B7C033
:1009C00008F0100E096E0E0E0A6E000E0B6E000E71
:1009D0000C6EA8EC0CF00550061007100810D8A4F7
:1009E000F4EF04F0F6EF04F0F9EF04F00001D54B5A
:1009F000D62B0001DC51D8B400EF05F002EF05F072
:100A0000A3EF05F0DB51D8A408EF05F00AEF05F0DD
:100A100010EF05F0F60EA56F7F0EA66F14EF05F030
:100A2000CE0EA56F7F0EA66F660E396E3A6ACB0E9C
:100A30003B6E7E0E3C6EC9C03DF0CAC03EF0C7C0E2
:100A40003FF0C8C040F0A5C041F0A6C042F0EAC0E7
:100A500043F0EBC044F0F2EC0EF00001DB51D8A4FF
:100A600034EF05F036EF05F03CEF05F0D1C0A7F00C
:100A7000D2C0A8F040EF05F0CDC0A7F0CEC0A8F0DE
:100A8000DB51D8A446EF05F048EF05F04EEF05F036
:100A9000E4C0A9F0E5C0AAF052EF05F0D3C0A9F078
:100AA000D4C0AAF07B0E396E3A6A0B0E3B6E7F0EF5
:100AB0003C6EA9C03DF0AAC03EF0A7C03FF0A8C060
:100AC00040F0EC0E416E426AF2EC0EF0900E396E80
:100AD0003A6A1F0E3B6E7F0E3C6ED5C03DF0D6C00D
:100AE0003EF0CBC03FF0CCC040F0F2EC0EF0010E77
:100AF0000E6E660E0F6E106A010EECEC0CF0010E1D
:100B00000E6E7B0E0F6E106A020EECEC0CF0010EF6
:100B10000E6E900E0F6E106A030EECEC0CF00001DE
:100B2000DB05D8A496EF05F098EF05F0A1EF05F0EE
:100B3000010E0E6EE10E0F6E7E0E106E040EECECCA
:100B40000CF00001DC6B63EC00F07CEF03F061EF74
:100B500000F02750D96EDA6ADECFF6FFDDCFF7FF5F
:100B60000800F550250AD8A4B8EF05F0BAEF05F053
:100B700026EF07F02750D96EDA6ADE2A000EDD2252
:100B8000576A000E566E56C05AF00001BD69BE6924
:100B9000306AE7EF05F05A822750D96EDA6ADE2A0A
:100BA000000EDD22E7EF05F0010E306EE7EF05F0F5
:100BB0002750D96EDA6ADECFF6FFDDCFF7FF0800E7
:100BC000F550300AD8B4CBEF05F0D4EF05F0305033
:100BD000D8B4EDEF05F0EFEF05F0D8EF05F027C042
:100BE00005F028C006F067EC0BF005C056F006C013
:100BF00057F057BE00EF06F0FEEF05F005EF06F0E8
:100C00005A80566C571ED8B0572A2750D96EDA6AC8
:100C1000DECF31F0DDCF32F031C0F6FF32C0F7FF6A
:100C20000800F550640AD8B418EF06F01AEF06F081
:100C300028EF06F031C0F6FF32C0F7FF0800F5508C
:100C4000690AD8A426EF06F028EF06F050EF06F068
:100C500028C0D9FF29C0DAFF020EDF26DF5CD96E7B
:100C6000DA6ADECF2CF0DECF2DF0010E31242A6EB1
:100C7000000E32202B6E2750D96EDA6A2AC0DEFFB2
:100C80002BC0DDFF26C01BF02CC01CF02DC01DF0BA
:100C90003FEC07F01BC026F01CC027F03EEF07F02A
:100CA00031C0F6FF32C0F7FF0800F550750AD8A42E
:100CB0005CEF06F05EEF06F094EF06F028C0D9FF77
:100CC00029C0DAFF020EDF26DF5CD96EDA6ADECFDA
:100CD0002CF0DECF2DF0010E31242A6E000E3220D2
:100CE0002B6E2750D96EDA6A2AC0DEFF2BC0DDFFDB
:100CF00088EF06F026C01BF02CC01CF02DC01DF0A4
:100D00001DEC09F01BC026F01CC027F03EEF07F0D9
:100D100031C0F6FF32C0F7FF0800F550750AD8B4AD
:100D20007AEF06F094EF06F0306A2750D96EDA6A4F
:100D3000DECFF6FFDDCFF7FF0800F550730AD8A429
:100D4000A4EF06F0A6EF06F0B0EF06F02750D96E3C
:100D5000DA6ADE2A000EDD22010E306EFCEF06F0AC
:100D60002750D96EDA6ADECFF6FFDDCFF7FF080035
:100D7000F5506C0AD8A4BFEF06F0C1EF06F0FCEF07
:100D800006F02750D96EDA6ADECF2AF0DDCF2BF0DD
:100D9000010E2A26000E2B222AC0F6FF2BC0F7FFD9
:100DA0000800F5506C0AD8A4D8EF06F0DAEF06F088
:100DB000FCEF06F02750D96EDA6ADECF2AF0DDCFDD
:100DC0002BF0020E2A26000E2B222AC0F6FF2BC083
:100DD000F7FF0800F550730AD8A4F1EF06F0F3EF1F
:100DE00006F0FCEF06F02750D96EDA6A030EDE2615
:100DF000000EDD22ACEF06F03050D8B402EF07F061
:100E000004EF07F01BEF07F026C00DF028C0D9FF54
:100E100029C0DAFF020EDF26DF5CD96EDA6ADECF88
:100E20000EF0DECF0FF0F7EC07F00DC026F00EC08D
:100E300027F03EEF07F02750D96EDA6ADE2A000E5F
:100E4000DD22276A000E266E3EEF07F02750D96E8E
:100E5000DA6ADECFF6FFDDCFF7FF0800F550056E4A
:100E6000066A26C007F0B3EC0AF02750D96EDA6A9A
:100E7000DE2A000EDD22276A010E266E1200010E08
:100E8000206E1DBE46EF07F049EF07F0010E4AEF56
:100E900007F0000E236E56C021F057C022F02350F9
:100EA000D8B455EF07F057EF07F06CEF07F02106C5
:100EB000D8A022062350D8A460EF07F062EF07F015
:100EC00067EF07F01F6A2B0E1E6E6AEF07F01F6AAE
:100ED0002D0E1E6E1EC023F0256A1F0E246E020109
:100EE0005F6B9FEF07F02406D8A02506400E242450
:100EF000D96E020E2520DA6E1CC005F01DC006F06A
:100F0000086A0A0E076E10EC0BF005C00BF006C065
:100F10000CF010EC0FF00B50300FDF6E206A210642
:100F2000D8A022061CC005F01DC006F0086A0A0EF3
:100F3000076E53EC0AF005C01CF006C01DF025BE7C
:100F4000AAEF07F0255008E12404D8A0AAEF07F083
:100F5000ACEF07F0D1EF07F01C501D10D8A4B3EF91
:100F600007F0B5EF07F073EF07F02050D8A4BBEF00
:100F700007F0BDEF07F073EF07F022BEC8EF07F0F0
:100F8000225008E12104D8A0C8EF07F0CAEF07F00B
:100F9000D1EF07F05AB2CFEF07F0D1EF07F073EFC0
:100FA00007F02350D8B4D7EF07F0D9EF07F0E4EFFC
:100FB00007F02406D8A02506400E2424D96E020E80
:100FC0002520DA6E23C0DFFF1BC013F0400E24245F
:100FD000146E020E2520156E21C016F022C017F0E7
:100FE000BCEC0BF013C01BF014C01CF012000EC0C0
:100FF00016F00FC017F016501710D8A402EF08F023
:1010000004EF08F008EF08F0A10E166E7F0E176EC1
:10101000196A000E186E0FEF08F0184A192A1850B6
:101020001624106E19501720116E10C0F6FF11C053
:10103000F7FFF86A050EF76403D00800F55005D0F5
:10104000F6CFE1FFF7CFE2FFE7500009D8A42BEF7E
:1010500008F02DEF08F00DEF08F018C012F019C0DD
:1010600013F056C014F057C015F05AB03AEF08F01C
:101070003CEF08F072EF08F047EF08F0066A200E28
:10108000056E0DC007F0B3EC0AF0184A192A145087
:10109000185C1950800A106E1550800A1058D8A09C
:1010A00054EF08F056EF08F03EEF08F072EF08F04A
:1010B00016C0F6FF17C0F7FFF86A050EF76403D0F5
:1010C0000800F55005D0F6CFE1FFF7CFE2FFE7507B
:1010D000106E1050056E066A0DC007F0B3EC0AF0F2
:1010E000164A172A1206D8A01306122806E113285A
:1010F000D8A47DEF08F07FEF08F058EF08F05AA071
:1011000084EF08F086EF08F0A0EF08F091EF08F008
:10111000066A200E056E0DC007F0B3EC0AF0184AFF
:10112000192A1450185C1950800A106E1550800A44
:101130001058D8A09EEF08F0A0EF08F088EF08F054
:1011400018C00DF019C00EF01200800E3C5CD8A043
:10115000ACEF08F0AEEF08F0B4EF08F00001C06BA0
:101160004B0EBF6F1CEF09F03F0E486E39C049F0BF
:101170003AC04AF03C5009E1020E3B5CD8A0C3EFF4
:1011800008F0C5EF08F0D0EF08F0FF0E3B24526ED8
:10119000FF0E3C20536E4C6A000E4B6ED6EF08F0EB
:1011A000536A010E526E4C6A010E4B6E490E336E3D
:1011B0003DC034F03EC035F0480E366E3CEC0EF0CB
:1011C00033C046F034C047F03B503C10D8B4EBEF8E
:1011D00008F0EDEF08F01CEF09F047BEF2EF08F061
:1011E000F4EF08F01CEF09F0FF0E3B24416EFF0EF8
:1011F0003C20426E4150465C4750800A436E42504C
:10120000800A4358D8A007EF09F009EF09F011EF61
:1012100009F0FF0E3B24446EFF0E3C20456E15EF97
:1012200009F046C044F047C045F044503924D96E17
:1012300045503A20DA6EDF6A1200010E1E6E56C06B
:101240001FF057C020F0226A1F0E216E02015F6B53
:1012500050EF09F02106D8A02206400E2124D96EB5
:10126000020E2220DA6E1CC005F01DC006F0086ACE
:101270000A0E076E0AEC0EF00550300FDF6E1E6A84
:101280001F06D8A020061CC005F01DC006F0086A85
:101290000A0E076E68EC0DF005C01CF006C01DF0CC
:1012A00021502210D8B457EF09F059EF09F07EEF22
:1012B00009F01C501D10D8A460EF09F062EF09F08E
:1012C0002AEF09F01E50D8A468EF09F06AEF09F080
:1012D0002AEF09F020BE75EF09F0205008E11F0445
:1012E000D8A075EF09F077EF09F07EEF09F05AB258
:1012F0007CEF09F07EEF09F02AEF09F01BC013F034
:10130000400E2124146E020E2220156E1FC016F00E
:1013100020C017F0BCEC0BF013C01BF014C01CF085
:1013200012000906D8A00A06092806E10A28D8A44E
:101330009CEF09F09EEF09F0AAEF09F0066A000E93
:10134000056EF2EF09F0054A062A074A082A09063F
:10135000D8A00A0605C0D9FF06C0DAFFDF50D8B40E
:10136000B4EF09F0B6EF09F0E1EF09F007C0F6FFBE
:1013700008C0F7FF0800F5500009D8B4C2EF09F023
:10138000C4EF09F0E1EF09F009500A10D8B4CBEF2F
:1013900009F0CDEF09F0E1EF09F005C0D9FF06C073
:1013A000DAFFDF500B6E07C0F6FF08C0F7FF08003A
:1013B000F5500B18D8B4DFEF09F0E1EF09F0A3EF17
:1013C00009F005C0D9FF06C0DAFFDF500B6E07C079
:1013D000F6FF08C0F7FF0800F5500B5C056E066AC3
:1013E000D8A0060612000E500F10D8B4FAEF09F07C
:1013F000FCEF09F04EEF0AF00EC005F00FC006F04A
:1014000067EC0EF005C010F006C011F039EF0AF0DD
:101410000CC005F00DC006F00EC007F00FC008F0BC
:1014200010C009F011C00AF091EC09F00550061047
:10143000D8A41DEF0AF01FEF0AF025EF0AF00CC048
:101440000CF00DC00DF052EF0AF0010E0C24056EE9
:10145000000E0D20066E0EC0F6FF0FC0F7FF08004D
:10146000F550076E086A8EEC0EF005C00CF006C051
:101470000DF00C500D10D8B440EF0AF042EF0AF016
:101480004EEF0AF00CC0D9FF0DC0DAFFDF50D8A430
:101490004CEF0AF04EEF0AF008EF0AF0000E0C6E67
:1014A000000E0D6E12000A6A08BE5BEF0AF059EFDB
:1014B0000AF061EF0AF0076C081ED8B0082A010E86
:1014C0000A6E06BE68EF0AF066EF0AF06EEF0AF0E9
:1014D000056C061ED8B0062A010E0A1A0C6A000E08
:1014E0000B6E07500810D8B478EF0AF07AEF0AF0C4
:1014F000A2EF0AF0010E096E82EF0AF0D8900736CB
:101500000836092A08AE87EF0AF089EF0AF07EEF65
:101510000AF0D8900B360C360750055C0850065878
:10152000D8A095EF0AF097EF0AF09CEF0AF0075069
:10153000055E0850065A0B80D89008320732092EF3
:1015400089EF0AF00A50D8B4A8EF0AF0AAEF0AF01F
:10155000AEEF0AF00B6C0C1ED8B00C2A0BC005F0D5
:101560000CC006F012000750D8B4B9EF0AF0BBEF78
:101570000AF0C3EF0AF00750D8A4C1EF0AF0C3EF96
:101580000AF0C8EF0AF0055047EC0FF00FEF0BF030
:101590000750D96EDA6A090ED926DE50DE10D8B4AB
:1015A000D4EF0AF0D6EF0AF0EFEF0AF00750D96E49
:1015B000DA6A090ED9260750E16EE26A020EE126C8
:1015C000DE50E65CE650800A0C6EDE50800A0C5855
:1015D000D8B0EDEF0AF0EFEF0AF00FEF0BF0075085
:1015E000D96EDA6A020ED926DECF08F0DDCF09F017
:1015F0000750D96EDA6ADECF0AF0DDCF0BF0085063
:101600000A24D96E09500B20DA6E05C0DFFF07509F
:10161000D96EDA6A020ED926DE2A000EDD22120009
:101620000A6A06BE18EF0BF016EF0BF01EEF0BF078
:10163000056C061ED8B0062A010E0A6E08BE25EFFC
:101640000BF023EF0BF029EF0BF0076C081ED8B05E
:10165000082A07500810D8B430EF0BF032EF0BF027
:1016600056EF0BF0010E096E3AEF0BF0D8900736EB
:101670000836092A08AE3FEF0BF041EF0BF036EFCA
:101680000BF00750055C08500658D8A04AEF0BF045
:101690004CEF0BF050EF0BF00750055E0850065A68
:1016A000D89008320732092E41EF0BF00A50D8B417
:1016B0005CEF0BF05EEF0BF062EF0BF0056C061EBB
:1016C000D8B0062A05C005F006C006F012000B6A65
:1016D000000E0A6E0550D96EDA6ADECFF6FFDDCF56
:1016E000F7FF0800F5502A0AD8A479EF0BF07BEF3A
:1016F0000BF0A4EF0BF00550D96EDA6ADE2A000E6B
:10170000DD220650D96EDA6A020EDF26DF5CD96E62
:10171000DA6ADECF0AF0DECF0BF0B7EF0BF00A0E7D
:101720000A02F3CF07F0F4CF08F00B02F3500826BB
:10173000095007240A6E000E08200B6E0550D96E62
:10174000DA6ADE2A000EDD220550D96EDA6ADECFB3
:10175000F6FFDDCFF7FF0800F550D00F096E090E38
:101760000964B5EF0BF0B7EF0BF08FEF0BF00AC089
:1017700005F00BC006F012005AA0C1EF0BF0C3EF4A
:101780000BF0CBEF0BF014C00DF015C00EF013C032
:101790000FF0D3EC0EF017BED2EF0BF0D0EF0BF042
:1017A000D5EF0BF0176A000E166E1A6A000E196E4E
:1017B000E3EF0BF0066A200E056E13C007F0B3ECE2
:1017C0000AF0194A1A2A1650195C1A50800A186E23
:1017D0001750800A1858D8A0F0EF0BF0F2EF0BF07A
:1017E000DAEF0BF05AB0F7EF0BF0F9EF0BF001EF77
:1017F0000CF014C00DF015C00EF013C00FF0D3ECB8
:101800000EF014C005F015C006F067EC0EF016508F
:101810000524136E17500620146E120043EF0CF0CF
:10182000010E0001E325056E066A000E0622000E79
:10183000086E076810EC0BF005500D6E0001E251C8
:101840000D18D8B426EF0CF028EF0CF05BEF0CF07D
:101850000BC0F6FF0CC0F7FFF86A000EE325D96E47
:10186000DA6A030EDA22050EF76403D00800F55099
:1018700005D0F6CFE1FFF7CFE2FFE750DF6E0B4A6E
:101880000C2A0DC0E3F00BC0F6FF0CC0F7FFF86A9E
:10189000050EF76403D00800F55005D0F6CFE1FF40
:1018A000F7CFE2FFE7500009D8A459EF0CF05BEF47
:1018B0000CF010EF0CF012000001D751D811D8B481
:1018C00064EF0CF066EF0CF06BEF0CF0D707D8A0CC
:1018D000D807A7EF0CF0E251E319D8B472EF0CF07F
:1018E00074EF0CF0A7EF0CF0D951D8A47AEF0CF0FC
:1018F0007CEF0CF0A7EF0CF0000EE225D96EDA6A4F
:10190000030EDA22DF500B6E0B502DEC0DF0200E83
:101910000B608DEF0CF08FEF0CF095EF0CF00001E9
:10192000D86B640ED76F99EF0CF00001D86B020EE4
:10193000D76F010EE225056E066A000E0622000E24
:10194000086E076810EC0BF005500001E26F120002
:1019500009500A100B100C10D8B4B1EF0CF0B3EF13
:101960000CF0E3EF0CF0010E0D6EBDEF0CF0D89013
:1019700009360A360B360C360D2A0CAEC2EF0CF0C7
:10198000C4EF0CF0B7EF0CF00950055C0A50065894
:101990000B5007580C500858D8A0D1EF0CF0D3EFDB
:1019A0000CF0DBEF0CF00950055E0A50065A0B50A4
:1019B000075A0C50085AD8900C320B320A320932AE
:1019C0000D2EC4EF0CF005C005F006C006F007C0F0
:1019D00007F008C008F01200116E03EF0DF00E5072
:1019E0003F0F156E16EF0DF00E50530F156E16EFDC
:1019F0000DF00E50670F156E16EF0DF00E507B0FA9
:101A0000156E16EF0DF01150010AD8B4EFEF0CF07F
:101A1000030AD8B4F4EF0CF0010AD8B4F9EF0CF0D3
:101A2000070AD8B4FEEF0CF02CEF0DF0000E126E8A
:101A3000000E136E000E146E100E126E15C013F011
:101A4000146A120E0B6E0C6A0EEC0CF00FC00BF049
:101A500010C00CF00EEC0CF01200076E000EF2BE7F
:101A6000010E086EF29E8A88AD0EE82EFED70000A9
:101A7000096A09C005F007C006F0052A42EF0DF01B
:101A8000D8900632052E40EF0DF006A04AEF0DF07B
:101A90004CEF0DF04FEF0DF08A9850EF0DF08A8863
:101AA000AD0EE82EFED70000092A070E09645BEF91
:101AB0000DF05DEF0DF039EF0DF08A98AD0EE82EC8
:101AC000FED7000008B002D0F29E01D0F28E1200C4
:101AD0000A6A000E096E07500810D8B472EF0DF0B4
:101AE00074EF0DF09CEF0DF0010E0B6E7CEF0DF01E
:101AF000D890073608360B2A08AE81EF0DF083EF39
:101B00000DF078EF0DF0D89009360A360750055CD5
:101B100008500658D8A08FEF0DF091EF0DF096EF1A
:101B20000DF00750055E0850065A0980D89008321B
:101B300007320B2E83EF0DF009C005F00AC006F046
:101B40001200BDEF0DF09EA8A8EF0DF0AAEF0DF06A
:101B5000A3EF0DF005C0F6FF06C0F7FFF86A050E0B
:101B6000F76403D00800F55005D0F6CFE1FFF7CFBA
:101B7000E2FFE750AD6E054A062A05C0F6FF06C033
:101B8000F7FFF86A050EF76403D00800F55005D09A
:101B9000F6CFE1FFF7CFE2FFE7500009D8A4D3EF7B
:101BA0000DF0D5EF0DF0A3EF0DF01200840EF66EE0
:101BB0001E0EF76E000EF86E00EEE6F010EE09F065
:101BC0000900F5CFEEFFE550E150FAE103EE00F039
:101BD00010EEFFF0EE6AE550E150FCE1E250FAE170
:101BE00002EE00F0600EEE6AE806FDE10101FF6B17
:101BF00000EEACF03A0EEE6AE806FDE15A6A596A68
:101C0000586A576A566A01900192000EF86E0001F8
:101C10000EEF03F007500810D8B411EF0EF013EFD9
:101C20000EF037EF0EF0010E096E1BEF0EF0D8909C
:101C300007360836092A08AE20EF0EF022EF0EF024
:101C400017EF0EF00750055C08500658D8A02BEF90
:101C50000EF02DEF0EF031EF0EF00750055E08503C
:101C6000065AD89008320732092E22EF0EF005C02E
:101C700005F006C006F0120034C037F035C038F069
:101C80000001BC6B000EBB6F54EF0EF033C026F0AA
:101C9000370E276E36C028F0296AA9EC05F02650C9
:101CA0000001BB272750BC2337C0F6FF38C0F7FF21
:101CB0000800F5500009D8A460EF0EF062EF0EF0B6
:101CC00046EF0EF0BBC033F0BCC034F0120005C0CC
:101CD00007F006C008F06FEF0EF0054A062A05C0AF
:101CE000F6FF06C0F7FFF86A050EF76403D0080098
:101CF000F55005D0F6CFE1FFF7CFE2FFE75000093E
:101D0000D8A485EF0EF087EF0EF06DEF0EF00750C0
:101D1000055C056E08500658066E120005C0D9FF16
:101D200006C0DAFF0750DE18D8A499EF0EF09BEF3B
:101D30000EF0A1EF0EF005C005F006C006F0B3EFFF
:101D40000EF005C0D9FF06C0DAFF054A062ADF50AB
:101D5000D8A4ADEF0EF0AFEF0EF08EEF0EF0000E48
:101D6000056E000E066E1200096E0944E846FC0B73
:101D70003C0BC26EC280210EE82EFED70000C2824C
:101D8000C2B2C5EF0EF0C7EF0EF0C0EF0EF0C350B9
:101D9000C4CF07F0086A07C008F0076A0710056E8D
:101DA0000850066E1200126A000E116EE1EF0EF07E
:101DB00010C005F0066A0FC007F0B3EC0AF0114A34
:101DC000122A11500D24D96E12500E20DA6EDF50F7
:101DD000106E1050D8A4EFEF0EF0F1EF0EF0D8EF28
:101DE0000EF012003D0E476E39C048F03AC049F07F
:101DF0004B6A000E4A6E526A000E516E480E336EE8
:101E00003BC034F03CC035F0470E366E3CEC0EF073
:101E10004A503924D96E4B503A20DA6EDF6A1200EC
:101E20000CBE15EF0FF017EF0FF01DEF0FF00BC00A
:101E30000BF00CC00CF029EF0FF00BC00DF00CC034
:101E40000EF00D1E0E1E0D4A0E2A0DC00BF00EC018
:101E50000CF0120005C008F006C0F6FF07C0F7FF3F
:101E6000064A072A082A0804D96EDA6A0800F5CF5C
:101E7000DFFFDF50D8A43FEF0FF041EF0FF02CEF62
:101E80000FF01200E803E8033200204F4BFF12006E
:101E9000FFFFFFFFFFFFFFFFFFFFFFFFFFFFFFFF52
:101EA000FFFFFFFFFFFFFFFFFFFFFFFFFFFFFFFF42
:101EB000FFFFFFFFFFFFFFFFFFFFFFFFFFFFFFFF32
:101EC000FFFFFFFFFFFFFFFFFFFFFFFFFFFFFFFF22
:107E7000007B2248616463223A25752C224C6164A0
:107E800063223A25752C22686F7572734F6E223A01
:107E900025752C2274696D654F6E223A25752C224A
:107EA00074696D654F6666223A25757D0D0A00413D
:107EB000542B43495053544152543D225443502271
:107EC0002C222573222C25730D0A004C3A253034C0
:107ED0007520483A253034752025732025303264CA
:107EE0000050756D70696E67204379636C652E2E46
:107EF0002E20202020004553503A204461746120F8
:107F000053656E74204F4B202020004F6E3A253071
:107F10003475204F66663A25303475202573004845
:107F200072733A202530357520657370583A2530C4
:107F3000347500414C524541445920434F4E4E4503
:107F4000435445440053756D70205769666920435A
:107F50006F6E74726F6C0041542B43495053454E01
:107F6000443D25640D0A0044616E204A7562656EC9
:107F700076696C6C65003139322E3136382E3530E9
:107F80002E3236004A616E75617279203230323697
:107F90000053454E44204F4B0041542D453A257324
:107FA00000286E756C6C2900415445300D0A004361
:107FB0002D453A257300502D453A257300532D4524
:107FC0003A257300313838330065723053004F4E14
:107FD000200065723100657232006572330065728F
:107FE000340065723500657236006572370065725F
:107FF0003800657239004F464600544F003E00007D
:020000040030CA
:0E00000000021918008281000FC00FE00F40AF
:020000040020DA
:08000000FFFFFFFFFFFFFFFF00
:0200000400F00A
:10000000FFFFFFFFFFFFFFFFFFFFFFFFFFFFFFFF00
:10001000FFFFFFFFFFFFFFFFFFFFFFFFFFFFFFFFF0
:10002000FFFFFFFFFFFFFFFFFFFFFFFFFFFFFFFFE0
:10003000FFFFFFFFFFFFFFFFFFFFFFFFFFFFFFFFD0
:10004000FFFFFFFFFFFFFFFFFFFFFFFFFFFFFFFFC0
:10005000FFFFFFFFFFFFFFFFFFFFFFFFFFFFFFFFB0
:10006000FFFFFFFFFFFFFFFFFFFFFFFFFFFFFFFFA0
:10007000FFFFFFFFFFFFFFFFFFFFFFFFFFFFFFFF90
:10008000FFFFFFFFFFFFFFFFFFFFFFFFFFFFFFFF80
:10009000FFFFFFFFFFFFFFFFFFFFFFFFFFFFFFFF70
:1000A000FFFFFFFFFFFFFFFFFFFFFFFFFFFFFFFF60
:1000B000FFFFFFFFFFFFFFFFFFFFFFFFFFFFFFFF50
:1000C000FFFFFFFFFFFFFFFFFFFFFFFFFFFFFFFF40
:1000D000FFFFFFFFFFFFFFFFFFFFFFFFFFFFFFFF30
:1000E000FFFFFFFFFFFFFFFFFFFFFFFFFFFFFFFF20
:1000F000FFFFFFFFFFFFFFFFFFFFFFFFFFFFFFFF10
:00000001FF
